:030000000206A64F
:0C06A600787FE4F6D8FD7581630206ED54
:08000300120B62120B1780FBC7
:100AEC0075D37F75D48C9000227486F0A37440F07B
:100AFC009007427486F0A37440F0A37486F0A3743C
:0B0B0C0040F0A37486F0A37440F022B8
:100B620075EF01120C0312002E120A2E7D807C25D5
:100B72007F101207A07D807C257F1012073212059C
:040B8200CA020BD5C3
:100B1700E4F51BC3E51B9402748094805017AF1B48
:100B2700120B3DEF24FE6007047006D2C18002C29B
:060B3700C1051B80DE2257
:03001300020011D7
:0100110032BC
:0300230002085C74
:10085C00C0E0C0F0C083C082C0D075D000C000C062
:10086C0001C002C003C004C005C006C00730990512
:10087C00C299753401309808C29875360112092F47
:10088C00D007D006D005D004D003D002D001D000C0
:0B089C00D0D0D082D083D0F0D0E0326A
:03003B0002080BAD
:10080B00C0E0C0F0C083C082C0D075D000C000C0B3
:10081B0001C002C003C004C005C006C007E59D307F
:10082B00E106539DFD754101E59D30E009539DFEA9
:10083B00753801120972D007D006D005D004D00349
:10084B00D002D001D000D0D0D082D083D0F0D0E075
:01085B00326A
:100BD50053C1F743C20843BC0843A80543A908D23B
:020BE500AF223D
:090C210020C3037F01227F0022A1
:0A002E0043C10653C2F953C0F92282
:100A2E00758E07438901758A6C758CEEC28CD2A9BE
:100A3E00D28C438920758B60758D60C28ED2ABD2FD
:100A4E008EE4F5C9F5C875CB83F5CAC2CAD2ADD24C
:020A5E00CA22AA
:03000B000208A741
:1008A700C0E0C0F0C083C082C0D075D000C000C017
:1008B70001C002C003C004C005C006C007758A6C2A
:1008C700758CEE120BA212003ED007D006D005D0D1
:1008D70004D003D002D001D000D0D0D082D083D0B2
:0408E700F0D0E0323B
:03001B00020012CE
:0100120032BB
:03002B0002000EC2
:03000E00C2CF322C
:060C33000458000000005F
:0A0C0300E4F55BF55AF559F55822A7
:100BA200AF5BAE5AAD59AC58EF2401F55BE43EF5AC
:0A0BB2005AE43DF559E43CF55822E1
:090C2A00AF5BAE5AAD59AC582283
:100B86008F2A8E298D288C27120C2A1203D8AF2A79
:0C0B9600AE29AD28AC279000040203F249
:100A60008B1F8A2089219000041203A8120416C348
:100A7000E55B9BFBE55A9AFAE55999F9E55898F830
:100A8000C3120383E440047F018001FFFEFDFC22CA
:100732008F1E8C1F8D20539AF3439B0C439850437A
:100742008E02AF1EE4FCFDFE7B407A42790FF81266
:100752000334C006C007AE1FAF20AB07AA06E4F9F8
:10076200F8D007D0061208EB78081203948F8DAFE9
:100772001EE4FCFDFE7B407A42790FF8120334C07E
:1007820006C007AE1FAF20AB07AA06E4F9F8D007F0
:0E079200D0061208EB8F8BC28EC2ABD2AC2207
:0A0C0D008F99E53460FCE4F5342211
:060A90008B5C8A5D895EAB
:100A9600E4F52BC3E52B9407748094805017AB5C68
:100AA600AA5DA95E852B82758300120307FF120CCF
:070AB6000D052B80DE7F001F
:010ABD002216
:0609F3008F4E8D4F8B506A
:1009F9007E007F077D007B007A00795112044285D1
:100A09004E51854F52E4F553E550F554E5512552C1
:100A190025532554F55575560D75570A7B007A00EF
:050A29007951020A9062
:0E0BE700E53530E706E4F5357F01227F002278
:10092F00859933E53554807039E53530E60AE5337E
:10093F00640A702B43358022E533640D7004433510
:10094F004022742C2535F8A6330535E52C64FA6062
:10095F0003753500D3E53594077480948040037593
:03096F003500222E
:1007A0008F1E8C1F8D205391F543920A438FC07585
:1007B0009D50AF1EE4FCFDFE7B407A42790FF8129B
:1007C0000334C006C007AE1FAF20AB07AA06E4F98A
:1007D000F8D007D0061208EB8F9EAF1EE4FCFDFE9A
:1007E0007B407A42790FF8120334C006C007AE1F6F
:1007F000AF20AB07AA06E4F9F8D007D0061208EB41
:0B08000078081203948F9543A9012291
:0A0C17008F9FE54160FCE4F54122E7
:060ABE008B5F8A60896174
:100AC400E4F537C3E5379407748094805017AB5F1F
:100AD400AA60A961853782758300120307FF120C8F
:070AE40017053780DE7F00DB
:010AEB0022E8
:0809B5008F438D448A458B46F7
:1009BD007E007F077D007B007A0079471204428517
:1009CD004347854448E545F549E546F54AE547255C
:1009DD00482549254AF54B754C0D754D0A7B007A16
:0609ED00007947020ABE7A
:0E0BF500E54230E7067542007F01227F0022B4
:10097200859F40E54254807039E54230E60AE54001
:10098200640A702B43428022E540640D70044342A6
:10099200402274392542F8A6400542E53964556083
:1009A20003754200D3E54294077480948040037536
:0309B200420022DE
:100BBC00EFFD7C007005A2C433FF22ED64014C7084
:090BCC0005A29233FF227F0022F2
:1005CA0053C1EF5391FBE4F51EF51F741A251FF56D
:1005DA00827400351EF583E4F07400251FF58274D9
:1005EA0000351EF583E4F090001E75F003E51F1236
:1005FA000436E51E75F003A42583F583E4F0900024
:10060A001D75F003E51F120436E51E75F003A425D7
:10061A0083F583E4F090001C75F003E51F1204369D
:10062A00E51E75F003A42583F583E4F07402251F03
:10063A00F5827400351EF583E4F07408251FF582EF
:10064A007400351EF583E4F07404251FF5827400E6
:10065A00351EF583E4F07406251FF5827400351EF5
:10066A00F583E4F0AE1EE51F7803C333CE33CED84C
:10067A00F9240AF974003EFA7B017FE87E037D00C3
:10068A007C00120B86051FE51F7002051EC394022B
:0B069A00E51E6480948050030205D52B
:0106A5002232
:10003E00E4F524F52574002525F58274003524F5A4
:10004E0083E01470030201131470030202D424021D
:10005E0060030202F0AF25120BBCEF60030200FA40
:10006E0074022525F58274003524F583E0FF04F033
:10007E00C3EF94017480948050030201087400252C
:10008E0025F58274003524F5837401F0740225255C
:10009E00F58274003524F583E4F0741A2525F58273
:1000AE0074003524F583E0705190001E75F003E561
:1000BE0025120436E52475F003A42583F583E4F0B8
:1000CE0090001D75F003E525120436E52475F00346
:1000DE00A42583F583E4F090001C75F003E525124A
:1000EE000436E52475F003A42583800A74022525C1
:1000FE00F58274003524F583E4F074042525F58229
:10010E0074000202EA74042525F58274003524F584
:10011E0083E0FF04F0C3EF940274809480500302D6
:10012E0002F074042525F58274003524F583E4F07D
:10013E0074082525F58274003524F583E004F0AFAC
:10014E0025120BBCEF604C741A2525F58274003510
:10015E0024F583E0FFE52575F003A4241CF582E465
:10016E003400F583E5822FF582E43583F583C08371
:10017E00C082E0FF74082525F58274003524F583CE
:10018E00E014FEF87401088002C333D8FC4FD0820D
:10019E00D083F074082525F58274003524F583E0AC
:1001AE00C394087480948050030202F074042525D1
:1001BE00F58274003524F583E4F0741A2525F58252
:1001CE0074003524F583E004F090001C75F003E50F
:1001DE0025120436E52475F003A42583F583E06427
:1001EE0055600E741A2525F58274003524F583E4C6
:1001FE00F074002525F58274003524F5837402F021
:10020E0074082525F58274003524F583E4F0741AFC
:10021E002525F58274003524F583E0C3940374809C
:07022E00948050030202F06E
:10023500E4F526741A2525F58274003524F583E442
:10024500F090001D75F003E525120436E52475F0E0
:1002550003A42583F583E0FF90001C75F003E525D5
:10026500120436E52475F003A42583F583E02FF504
:100275002690001E75F003E525120436E52475F079
:1002850003A42583F583E06526706074622525F84F
:10029500A60774062525F58274003524F583E4F058
:1002A500AE24E5257803C333CE33CED8F9240AF935
:1002B50074003EFA7B017FE87E037D007C00120B13
:0D02C50086E52545246024E52564014524D7
:1002D200801C74002525F58274003524F583E4F032
:1002E20074022525F58274003524F583E4F0052592
:1002F200E52570020524C39402E5246480948050AD
:0403020003020043AF
:0103060022D4
:100B3D008F1EEF75F008A4240AF9740035F0FA7BC6
:100B4D0001120A60EC4D4E4F60037F002274622546
:050B5D001EF8E6FF2276
:1006B200020003E493A3F8E493A34003F68001F25B
:1006C20008DFF48029E493A3F85407240CC8C33349
:1006D200C4540F4420C8834004F456800146F6DF18
:1006E200E4800B0102040810204080900C33E47E69
:1006F200019360BCA3FF543F30E509541FFEE4930D
:10070200A360010ECF54C025E060A840B8E493A3D3
:10071200FAE493A3F8E493A3C8C582C8CAC583CAFE
:10072200F0A3C8C582C8CAC583CADFE9DEE780BEB6
:010C390000BA
:10030700BB010CE58229F582E5833AF583E02250AB
:1003170006E92582F8E622BBFE06E92582F8E222F5
:0D032700E58229F582E5833AF583E493220F
:10033400E88FF0A4CC8BF0A42CFCE98EF0A42CFC68
:100344008AF0EDA42CFCEA8EF0A4CDA8F08BF0A4E6
:100354002DCC3825F0FDE98FF0A42CCD35F0FCEB45
:100364008EF0A4FEA9F0EB8FF0A4CFC5F02ECD390A
:0F037400FEE43CFCEAA42DCE35F0FDE43CFC2277
:1008EB00C2D5E830E70FB2D5E4C39BFBE49AFAE438
:1008FB0099F9E498F8EC30E717B2D51209211204F4
:10090B00AAE4C39BFBE49AFAE499F9E498F8800310
:10091B001204AA30D50DE4C39FFFE49EFEE49DFDB7
:04092B00E49CFC222A
:10038300EB9FF5F0EA9E42F0E99D42F0E89C45F0D0
:010393002247
:10039400E86010ECA2E713FCED13FDEE13FEEF137F
:0403A400FFD8F0226C
:1003A800BB010DE58229F582E5833AF5830205480C
:1003B8005007E92582F802053CBBFE07E92582F8CB
:1003C800020554E58229F582E5833AF58302056042
:1003D800BB010789828A830205B25005E9F8020544
:0A03E800A6BBFE05E9F80205BE22DF
:1003F200BB010DE58229F582E5833AF5830205B258
:100402005007E92582F80205A6BBFE07E92582F816
:040412000205BE22FF
:10041600BB010789828A8302057D5005E9F802053A
:1004260070BBFE05E9F802058989828A8302059672
:0C043600A42582F582E5F03583F58322D1
:10044200EF4E6012EF60010EEDBB010B89828A83D1
:10045200F0A3DFFCDEFA2289F05007F709DFFCA9DE
:0C046200F022BBFEFCF309DFFCA9F02235
:10046E0075F008758200EF2FFFEE33FECD33CDCC45
:10047E0033CCC58233C5829BED9AEC99E5829840C8
:10048E000CF582EE9BFEED9AFDEC99FC0FD5F0D6A5
:10049E00E4CEFBE4CDFAE4CCF9A88222B800C1B9CF
:1004AE000059BA002DEC8BF084CFCECDFCE5F0CB0D
:1004BE00F97818EF2FFFEE33FEED33FDEC33FCEB46
:1004CE0033FB10D703994004EB99FB0FD8E5E4F901
:1004DE00FA227818EF2FFFEE33FEED33FDEC33FCEE
:1004EE00C933C910D7059BE99A4007EC9BFCE99AE2
:1004FE00F90FD8E0E4C9FAE4CCFB2275F010EF2F27
:10050E00FFEE33FEED33FDCC33CCC833C810D70726
:10051E009BEC9AE899400AED9BFDEC9AFCE899F861
:0E052E000FD5F0DAE4CDFBE4CCFAE4C8F922F4
:0C053C00E6FC08E6FD08E6FE08E6FF22EB
:0C054800E0FCA3E0FDA3E0FEA3E0FF2226
:0C055400E2FC08E2FD08E2FE08E2FF22E3
:10056000E493FC740193FD740293FE740393FF22E1
:0D057000E6FB08E6F908E6FA08E6CBF822FB
:0C057D00E0F8A3E0F9A3E0FAA3E0FB2201
:0D058900E2FB08E2F908E2FA08E2CBF822F2
:10059600E493F8740193F9740293FA740393FB22BB
:0C05A600ECF608EDF608EEF608EFF62281
:0C05B200ECF0A3EDF0A3EEF0A3EFF022BC
:0C05BE00ECF208EDF208EEF208EFF22279
:00000001FF
