:03000000020241B8
:1002410078FFE4F6D8FD9000007F007E07E4F0A37C
:0A025100DFFCDEFA75812C02029634
:1002DB0012062743CF1075EF0100E470507405B47C
:1002EB000A0050499002F6F82828730203140203FF
:1002FB001702031A02031D02032002032302032623
:10030B0002032902033202033502072102072602E8
:10031B00072B0207350206490206FD0205AFE4FD75
:0E032B007FFF7E1F0205D802033912067D22D5
:1003390053EFBF7D557CAA7FAA7E5512052B7F728C
:100349007E557DFF7C38AB0FAA0EA90DA80CC312F0
:10035900021D7002C282751AAA751B557F007E554F
:100369007DAA7CFF1204457F407E807D017C00AB25
:100379000BAA0AA909A808C312021D70B3E515B48E
:0B038900C0AEE514B43FA9D28280A5ED
:0604FC00022A0000C10607
:1005AF007F047E001204C943AD403006FDC206AF82
:1005BF00AFEF75F010A4FFAEF0E5AEC4540F7C00A2
:0905CF002FF52BEC3EF52A80DE2D
:1004C900EF4480F5ADC3EF9408EE9400500FA807F0
:1004D9007401088002C333D8FCF5AB8010EF24F80F
:1004E900FFF87401088002C333D8FCF5AC43A84077
:0304F900D2AF225D
:0300330002071BA6
:06071B0053ADDFD20632EF
:0507210012070980FE33
:0907090075CE84D2AF43A904228D
:03004B000206F1B9
:0C06F100C0E0E5CE20E602B281D0E0328D
:03050200012C00C9
:0507260012055880FEE1
:10055800539A7F439B805391CF43923053A1FC43DE
:10056800A203E4F5BA75BC3075C60375BB80F5BD4A
:0C05780075C70343A80543A908D2AF22B1
:0300030002073EB3
:03073E00B2823252
:030013000206B52D
:0F06B500B283209403752C10209503752C2032EE
:0300530002074160
:03074100B284324D
:07050500022800000127009D
:1005D8008E168F178D18AB187DFF120600AD18AF59
:1005E80017AE161206648F27E4F5F4E527F47004B5
:0805F800B28280F7B28380F3A8
:100600008E198F1AC2AF8DF5E519547FF5F3851A4F
:10061000F28BF475F1F075F60600000000000000A2
:0706200000E4F5F4D2AF2263
:10066400C2AF8DF4E5292FF582E5283EF583E493A6
:08067400FCE4F5F4D2AFAF0481
:01067C00225B
:10062700759AFFE4F59BF591F592F5A175A2FF7513
:10063700C1FF75C201439A0175B1FF43C10175D965
:02064700FF2290
:08050C00C101C100C102C103DD
:0C06FD001206C4AF9FEF645770F980FE36
:1003EE008E218F225391F543920A438FC0759D50F3
:1003FE00AE21AF22E4FCFD7B407A42790FF8120168
:10040E0000AB26AA25A924A82312018B8F9EAE210C
:10041E00AF22E4FCFD7B407A42790FF8120100AB6B
:10042E0026AA25A924A82312018B780812022E8F42
:07043E009543A901D2AF2292
:0F06C400758F80759E52759D8843A901D2AF2214
:10069100438F40759D2F759E01439D8043A901D2D3
:0206A100AF2286
:03003B000206D3E7
:0F06D300C0E0E59D30E605539DBFD203D0E03275
:05072B0012049580FEA0
:10049500758E07438901758A80758CC1C28CD2A976
:1004A500D28C438920758B60758D60C28ED2ABD29C
:1004B5008EE4F5C9F5C875CB83F5CAC2CAD2ADD2EB
:0404C500CAD2AF22C6
:03000B00020712D7
:09071200758A80758CC1B2813238
:03001B0002074495
:03074400B282324C
:03002B0002073099
:05073000C2CFB28332CC
:04051400C104C10558
:10064900E4751B80751A25F519F5187F10FE12033C
:0B065900947599553004FDC20480F632
:100394008E168F17539AF3439B0C439850438E0247
:1003A400AE16AF17E4FCFD7B407A42790FF81201D8
:1003B40000AB1BAA1AA919A81812018B78081202FB
:1003C4002E8F8DAE16AF17E4FCFD7B407A42790F79
:1003D400F8120100AB1BAA1AA919A81812018B8FD5
:0A03E4008BC28EC2ABD2ACD2AF22A6
:030023000206E2F0
:0F06E200309904C299D204309804C298D20532DC
:0507350012058480FEA6
:1005840075D37F75D48C9000007486F0A37440F00A
:100594009007427486F0A37440F0A37486F0A374A9
:0B05A40040F0A37486F0A37440F02226
:10051800040C0000000004080000000002140000A1
:10052B008FE98EEA8DED8CEE43EF80E5EF20E7FB54
:10053B0085E91385EA1285EB1185EC10AF13AE122A
:0D054B00AD11AC108F0F8E0E8D0D8C0C229B
:100445008F1F8E1E8D1D8C1C851FE9851EEA851D3F
:10045500EB851CEC851BEDE51AF5EE43EFC0E5EFEA
:1004650020E7FB85E91385EA1285EB1185EC10AFD2
:10047500EEEFFEADED7C00E42DF515EC3EF514AF89
:0F04850013AE12AD11AC108F0B8E0A8D098C08BF
:010494002245
:02052800C10709
:10067D007D017F011206A3E5B730E504D20780F7AF
:04068D00C20780F32D
:1006A30075B780ED42B775B640EF42B643A920D285
:0206B300AF2274
:0300630002073A57
:04073A0053B7BF32C0
:10025B000202DBE493A3F8E493A34003F68001F2DC
:10026B0008DFF48029E493A3F85407240CC8C333A4
:10027B00C4540F4420C8834004F456800146F6DF73
:10028B00E4800B01020408102040809004FCE47E03
:10029B00019360BCA3FF543F30E509541FFEE49368
:1002AB00A360010ECF54C025E060A840B8E493A32F
:1002BB00FAE493A3F8E493A3C8C582C8CAC583CA5A
:1002CB00F0A3C8C582C8CAC583CADFE9DEE780BE12
:01052A0000D0
:10010000E88FF0A4CC8BF0A42CFCE98EF0A42CFC9E
:100110008AF0EDA42CFCEA8EF0A4CDA8F08BF0A41C
:100120002DCC3825F0FDE98FF0A42CCD35F0FCEB7B
:100130008EF0A4FEA9F0EB8FF0A4CFC5F02ECD3940
:0F014000FEE43CFCEAA42DCE35F0FDE43CFC22AD
:10014F0075F008758200EF2FFFEE33FECD33CDCC67
:10015F0033CCC58233C5829BED9AEC99E5829840EA
:10016F000CF582EE9BFEED9AFDEC99FC0FD5F0D6C7
:10017F00E4CEFBE4CDFAE4CCF9A88222B800C1B9F1
:10018F000059BA002DEC8BF084CFCECDFCE5F0CB2F
:10019F00F97818EF2FFFEE33FEED33FDEC33FCEB68
:1001AF0033FB10D703994004EB99FB0FD8E5E4F923
:1001BF00FA227818EF2FFFEE33FEED33FDEC33FC10
:1001CF00C933C910D7059BE99A4007EC9BFCE99A04
:1001DF00F90FD8E0E4C9FAE4CCFB2275F010EF2F49
:1001EF00FFEE33FEED33FDCC33CCC833C810D70749
:1001FF009BEC9AE899400AED9BFDEC9AFCE899F884
:0E020F000FD5F0DAE4CDFBE4CCFAE4C8F92216
:10021D00EB9FF5F0EA9E42F0E99D42F0E89C45F037
:01022D0022AE
:10022E00E8600FECC313FCED13FDEE13FEEF13FFAE
:03023E00D8F122D2
:00000001FF
